{
  "address": "0xc9b51757c31eFaE5ac46bd63Bb25db86386F55a0",
  "abi": [
    {
      "inputs": [],
      "stateMutability": "nonpayable",
      "type": "constructor"
    },
    {
      "anonymous": false,
      "inputs": [
        {
          "indexed": true,
          "internalType": "address",
          "name": "owner",
          "type": "address"
        },
        {
          "indexed": true,
          "internalType": "address",
          "name": "approved",
          "type": "address"
        },
        {
          "indexed": true,
          "internalType": "uint256",
          "name": "tokenId",
          "type": "uint256"
        }
      ],
      "name": "Approval",
      "type": "event"
    },
    {
      "anonymous": false,
      "inputs": [
        {
          "indexed": true,
          "internalType": "address",
          "name": "owner",
          "type": "address"
        },
        {
          "indexed": true,
          "internalType": "address",
          "name": "operator",
          "type": "address"
        },
        {
          "indexed": false,
          "internalType": "bool",
          "name": "approved",
          "type": "bool"
        }
      ],
      "name": "ApprovalForAll",
      "type": "event"
    },
    {
      "anonymous": false,
      "inputs": [
        {
          "indexed": true,
          "internalType": "address",
          "name": "previousOwner",
          "type": "address"
        },
        {
          "indexed": true,
          "internalType": "address",
          "name": "newOwner",
          "type": "address"
        }
      ],
      "name": "OwnershipTransferred",
      "type": "event"
    },
    {
      "anonymous": false,
      "inputs": [
        {
          "indexed": true,
          "internalType": "address",
          "name": "from",
          "type": "address"
        },
        {
          "indexed": true,
          "internalType": "address",
          "name": "to",
          "type": "address"
        },
        {
          "indexed": true,
          "internalType": "uint256",
          "name": "tokenId",
          "type": "uint256"
        }
      ],
      "name": "Transfer",
      "type": "event"
    },
    {
      "inputs": [],
      "name": "ARRAY_LENGTH",
      "outputs": [
        {
          "internalType": "uint8",
          "name": "",
          "type": "uint8"
        }
      ],
      "stateMutability": "view",
      "type": "function"
    },
    {
      "inputs": [],
      "name": "MIN_PRICE",
      "outputs": [
        {
          "internalType": "uint256",
          "name": "",
          "type": "uint256"
        }
      ],
      "stateMutability": "view",
      "type": "function"
    },
    {
      "inputs": [],
      "name": "POSSIBLE_SETS",
      "outputs": [
        {
          "internalType": "uint8",
          "name": "",
          "type": "uint8"
        }
      ],
      "stateMutability": "view",
      "type": "function"
    },
    {
      "inputs": [
        {
          "internalType": "address",
          "name": "to",
          "type": "address"
        },
        {
          "internalType": "uint256",
          "name": "tokenId",
          "type": "uint256"
        }
      ],
      "name": "approve",
      "outputs": [],
      "stateMutability": "nonpayable",
      "type": "function"
    },
    {
      "inputs": [
        {
          "internalType": "address",
          "name": "owner",
          "type": "address"
        }
      ],
      "name": "balanceOf",
      "outputs": [
        {
          "internalType": "uint256",
          "name": "",
          "type": "uint256"
        }
      ],
      "stateMutability": "view",
      "type": "function"
    },
    {
      "inputs": [
        {
          "internalType": "address",
          "name": "user",
          "type": "address"
        }
      ],
      "name": "checkWinner",
      "outputs": [
        {
          "internalType": "bool",
          "name": "",
          "type": "bool"
        }
      ],
      "stateMutability": "view",
      "type": "function"
    },
    {
      "inputs": [],
      "name": "claimPrize",
      "outputs": [],
      "stateMutability": "nonpayable",
      "type": "function"
    },
    {
      "inputs": [],
      "name": "contractBalance",
      "outputs": [
        {
          "internalType": "uint256",
          "name": "",
          "type": "uint256"
        }
      ],
      "stateMutability": "view",
      "type": "function"
    },
    {
      "inputs": [],
      "name": "currentMintPrice",
      "outputs": [
        {
          "internalType": "uint256",
          "name": "",
          "type": "uint256"
        }
      ],
      "stateMutability": "view",
      "type": "function"
    },
    {
      "inputs": [
        {
          "internalType": "address",
          "name": "user",
          "type": "address"
        }
      ],
      "name": "getAllUserNumberCounts",
      "outputs": [
        {
          "internalType": "uint256[][]",
          "name": "",
          "type": "uint256[][]"
        }
      ],
      "stateMutability": "view",
      "type": "function"
    },
    {
      "inputs": [
        {
          "internalType": "uint256",
          "name": "tokenId",
          "type": "uint256"
        }
      ],
      "name": "getApproved",
      "outputs": [
        {
          "internalType": "address",
          "name": "",
          "type": "address"
        }
      ],
      "stateMutability": "view",
      "type": "function"
    },
    {
      "inputs": [
        {
          "internalType": "uint256",
          "name": "tokenID",
          "type": "uint256"
        }
      ],
      "name": "getRandomNumbers",
      "outputs": [
        {
          "internalType": "uint256[5]",
          "name": "",
          "type": "uint256[5]"
        }
      ],
      "stateMutability": "view",
      "type": "function"
    },
    {
      "inputs": [
        {
          "internalType": "uint256",
          "name": "tokenId",
          "type": "uint256"
        }
      ],
      "name": "getTokenMetadata",
      "outputs": [
        {
          "internalType": "uint256[5]",
          "name": "",
          "type": "uint256[5]"
        }
      ],
      "stateMutability": "view",
      "type": "function"
    },
    {
      "inputs": [
        {
          "internalType": "address",
          "name": "user",
          "type": "address"
        },
        {
          "internalType": "uint8",
          "name": "position",
          "type": "uint8"
        }
      ],
      "name": "getUserNumberCounts",
      "outputs": [
        {
          "internalType": "uint256[]",
          "name": "",
          "type": "uint256[]"
        }
      ],
      "stateMutability": "view",
      "type": "function"
    },
    {
      "inputs": [
        {
          "internalType": "address",
          "name": "owner",
          "type": "address"
        },
        {
          "internalType": "address",
          "name": "operator",
          "type": "address"
        }
      ],
      "name": "isApprovedForAll",
      "outputs": [
        {
          "internalType": "bool",
          "name": "",
          "type": "bool"
        }
      ],
      "stateMutability": "view",
      "type": "function"
    },
    {
      "inputs": [
        {
          "internalType": "address",
          "name": "",
          "type": "address"
        }
      ],
      "name": "isWinner",
      "outputs": [
        {
          "internalType": "bool",
          "name": "",
          "type": "bool"
        }
      ],
      "stateMutability": "view",
      "type": "function"
    },
    {
      "inputs": [],
      "name": "mint",
      "outputs": [],
      "stateMutability": "payable",
      "type": "function"
    },
    {
      "inputs": [],
      "name": "name",
      "outputs": [
        {
          "internalType": "string",
          "name": "",
          "type": "string"
        }
      ],
      "stateMutability": "view",
      "type": "function"
    },
    {
      "inputs": [],
      "name": "nextTokenId",
      "outputs": [
        {
          "internalType": "uint256",
          "name": "",
          "type": "uint256"
        }
      ],
      "stateMutability": "view",
      "type": "function"
    },
    {
      "inputs": [],
      "name": "owner",
      "outputs": [
        {
          "internalType": "address",
          "name": "",
          "type": "address"
        }
      ],
      "stateMutability": "view",
      "type": "function"
    },
    {
      "inputs": [
        {
          "internalType": "uint256",
          "name": "tokenId",
          "type": "uint256"
        }
      ],
      "name": "ownerOf",
      "outputs": [
        {
          "internalType": "address",
          "name": "",
          "type": "address"
        }
      ],
      "stateMutability": "view",
      "type": "function"
    },
    {
      "inputs": [],
      "name": "prizePool",
      "outputs": [
        {
          "internalType": "uint256",
          "name": "",
          "type": "uint256"
        }
      ],
      "stateMutability": "view",
      "type": "function"
    },
    {
      "inputs": [],
      "name": "renounceOwnership",
      "outputs": [],
      "stateMutability": "nonpayable",
      "type": "function"
    },
    {
      "inputs": [
        {
          "internalType": "address",
          "name": "from",
          "type": "address"
        },
        {
          "internalType": "address",
          "name": "to",
          "type": "address"
        },
        {
          "internalType": "uint256",
          "name": "tokenId",
          "type": "uint256"
        }
      ],
      "name": "safeTransferFrom",
      "outputs": [],
      "stateMutability": "nonpayable",
      "type": "function"
    },
    {
      "inputs": [
        {
          "internalType": "address",
          "name": "from",
          "type": "address"
        },
        {
          "internalType": "address",
          "name": "to",
          "type": "address"
        },
        {
          "internalType": "uint256",
          "name": "tokenId",
          "type": "uint256"
        },
        {
          "internalType": "bytes",
          "name": "_data",
          "type": "bytes"
        }
      ],
      "name": "safeTransferFrom",
      "outputs": [],
      "stateMutability": "nonpayable",
      "type": "function"
    },
    {
      "inputs": [
        {
          "internalType": "address",
          "name": "operator",
          "type": "address"
        },
        {
          "internalType": "bool",
          "name": "approved",
          "type": "bool"
        }
      ],
      "name": "setApprovalForAll",
      "outputs": [],
      "stateMutability": "nonpayable",
      "type": "function"
    },
    {
      "inputs": [
        {
          "internalType": "bytes4",
          "name": "interfaceId",
          "type": "bytes4"
        }
      ],
      "name": "supportsInterface",
      "outputs": [
        {
          "internalType": "bool",
          "name": "",
          "type": "bool"
        }
      ],
      "stateMutability": "view",
      "type": "function"
    },
    {
      "inputs": [],
      "name": "symbol",
      "outputs": [
        {
          "internalType": "string",
          "name": "",
          "type": "string"
        }
      ],
      "stateMutability": "view",
      "type": "function"
    },
    {
      "inputs": [
        {
          "internalType": "uint256",
          "name": "index",
          "type": "uint256"
        }
      ],
      "name": "tokenByIndex",
      "outputs": [
        {
          "internalType": "uint256",
          "name": "",
          "type": "uint256"
        }
      ],
      "stateMutability": "view",
      "type": "function"
    },
    {
      "inputs": [
        {
          "internalType": "uint256",
          "name": "",
          "type": "uint256"
        },
        {
          "internalType": "uint256",
          "name": "",
          "type": "uint256"
        }
      ],
      "name": "tokenMetadata",
      "outputs": [
        {
          "internalType": "uint256",
          "name": "",
          "type": "uint256"
        }
      ],
      "stateMutability": "view",
      "type": "function"
    },
    {
      "inputs": [
        {
          "internalType": "address",
          "name": "owner",
          "type": "address"
        },
        {
          "internalType": "uint256",
          "name": "index",
          "type": "uint256"
        }
      ],
      "name": "tokenOfOwnerByIndex",
      "outputs": [
        {
          "internalType": "uint256",
          "name": "",
          "type": "uint256"
        }
      ],
      "stateMutability": "view",
      "type": "function"
    },
    {
      "inputs": [
        {
          "internalType": "uint256",
          "name": "tokenId",
          "type": "uint256"
        }
      ],
      "name": "tokenURI",
      "outputs": [
        {
          "internalType": "string",
          "name": "",
          "type": "string"
        }
      ],
      "stateMutability": "view",
      "type": "function"
    },
    {
      "inputs": [],
      "name": "totalSupply",
      "outputs": [
        {
          "internalType": "uint256",
          "name": "",
          "type": "uint256"
        }
      ],
      "stateMutability": "view",
      "type": "function"
    },
    {
      "inputs": [
        {
          "internalType": "address",
          "name": "from",
          "type": "address"
        },
        {
          "internalType": "address",
          "name": "to",
          "type": "address"
        },
        {
          "internalType": "uint256",
          "name": "tokenId",
          "type": "uint256"
        }
      ],
      "name": "transferFrom",
      "outputs": [],
      "stateMutability": "nonpayable",
      "type": "function"
    },
    {
      "inputs": [
        {
          "internalType": "address",
          "name": "newOwner",
          "type": "address"
        }
      ],
      "name": "transferOwnership",
      "outputs": [],
      "stateMutability": "nonpayable",
      "type": "function"
    },
    {
      "inputs": [
        {
          "internalType": "address",
          "name": "",
          "type": "address"
        },
        {
          "internalType": "uint8",
          "name": "",
          "type": "uint8"
        },
        {
          "internalType": "uint8",
          "name": "",
          "type": "uint8"
        }
      ],
      "name": "userNumberCounts",
      "outputs": [
        {
          "internalType": "uint256",
          "name": "",
          "type": "uint256"
        }
      ],
      "stateMutability": "view",
      "type": "function"
    },
    {
      "inputs": [],
      "name": "withdraw",
      "outputs": [],
      "stateMutability": "nonpayable",
      "type": "function"
    }
  ],
  "transactionHash": "0x45d68f494d636f57b0170d9cae0f8960dc2c6f289485ebfadc22ad88d8a1c603",
  "args": [],
  "numDeployments": 1,
  "solcInputHash": "3a4263673b635f496f4598153da4f92b",
  "bytecode": "0x608060405266017dfcdece4000600b556000600c55600d805460ff191660051790553480156200002e57600080fd5b50604051806040016040528060098152602001684d696e744368616f7360b81b815250604051806040016040528060058152602001644348414f5360d81b8152508160009081620000809190620001ad565b5060016200008f8282620001ad565b505050620000ac620000a6620000b260201b60201c565b620000b6565b62000279565b3390565b600a80546001600160a01b038381166001600160a01b0319831681179093556040519116919082907f8be0079c531659141344cd1fd0a4f28419497f9722a3daafe3b4186f6b6457e090600090a35050565b634e487b7160e01b600052604160045260246000fd5b600181811c908216806200013357607f821691505b6020821081036200015457634e487b7160e01b600052602260045260246000fd5b50919050565b601f821115620001a857600081815260208120601f850160051c81016020861015620001835750805b601f850160051c820191505b81811015620001a4578281556001016200018f565b5050505b505050565b81516001600160401b03811115620001c957620001c962000108565b620001e181620001da84546200011e565b846200015a565b602080601f831160018114620002195760008415620002005750858301515b600019600386901b1c1916600185901b178555620001a4565b600085815260208120601f198616915b828110156200024a5788860151825594840194600190910190840162000229565b5085821015620002695787850151600019600388901b60f8161c191681555b5050505050600190811b01905550565b612d1b80620002896000396000f3fe60806040526004361061021a5760003560e01c80636e4063aa1161012357806395d89b41116100ab578063b88d4fde1161006f578063b88d4fde1461064d578063c87b56dd1461066d578063e985e9c51461068d578063eaaf369a146106d6578063f2fde38b146106f657600080fd5b806395d89b41146105ba5780639d9ca28d146105cf578063a02a4ad1146105ff578063a22cb46514610614578063ad9f20a61461063457600080fd5b8063719ce73e116100f2578063719ce73e1461053a57806374528bd11461055057806375794a3c146105705780638b7afe2e146105865780638da5cb5b1461059c57600080fd5b80636e4063aa146104b257806370740ac9146104f057806370a0823114610505578063715018a61461052557600080fd5b80632f745c59116101a65780634d722c4c116101755780634d722c4c146103df5780634f6ccce714610418578063603168011461043857806360a09801146104655780636352211e1461049257600080fd5b80632f745c591461035e5780633ccfd60b1461037e578063415251051461039357806342842e0e146103bf57600080fd5b8063095ea7b3116101ed578063095ea7b3146102d25780631249c58b146102f457806318160ddd146102fc57806323b872dd14610311578063281020781461033157600080fd5b806301ffc9a71461021f5780630561942a1461025457806306fdde0314610278578063081812fc1461029a575b600080fd5b34801561022b57600080fd5b5061023f61023a3660046125ac565b610716565b60405190151581526020015b60405180910390f35b34801561026057600080fd5b5061026a600b5481565b60405190815260200161024b565b34801561028457600080fd5b5061028d610741565b60405161024b9190612619565b3480156102a657600080fd5b506102ba6102b536600461262c565b6107d3565b6040516001600160a01b03909116815260200161024b565b3480156102de57600080fd5b506102f26102ed366004612661565b6107fa565b005b6102f2610914565b34801561030857600080fd5b5060085461026a565b34801561031d57600080fd5b506102f261032c36600461268b565b610ac0565b34801561033d57600080fd5b5061035161034c3660046126c7565b610b04565b60405161024b91906126e2565b34801561036a57600080fd5b5061026a610379366004612661565b610c69565b34801561038a57600080fd5b506102f2610cff565b34801561039f57600080fd5b50600d546103ad9060ff1681565b60405160ff909116815260200161024b565b3480156103cb57600080fd5b506102f26103da36600461268b565b610dbf565b3480156103eb57600080fd5b5061023f6103fa3660046126c7565b6001600160a01b031660009081526012602052604090205460ff1690565b34801561042457600080fd5b5061026a61043336600461262c565b610e03565b34801561044457600080fd5b5061045861045336600461262c565b610e96565b60405161024b919061276c565b34801561047157600080fd5b506104856104803660046127ae565b610f39565b60405161024b91906127e1565b34801561049e57600080fd5b506102ba6104ad36600461262c565b611013565b3480156104be57600080fd5b5061026a6104cd366004612825565b600f60209081526000938452604080852082529284528284209052825290205481565b3480156104fc57600080fd5b506102f2611073565b34801561051157600080fd5b5061026a6105203660046126c7565b6111ff565b34801561053157600080fd5b506102f2611285565b34801561054657600080fd5b5061026a60105481565b34801561055c57600080fd5b5061045861056b36600461262c565b611299565b34801561057c57600080fd5b5061026a600c5481565b34801561059257600080fd5b5061026a60115481565b3480156105a857600080fd5b50600a546001600160a01b03166102ba565b3480156105c657600080fd5b5061028d611390565b3480156105db57600080fd5b5061023f6105ea3660046126c7565b60126020526000908152604090205460ff1681565b34801561060b57600080fd5b506103ad600581565b34801561062057600080fd5b506102f261062f366004612868565b61139f565b34801561064057600080fd5b5061026a6461c9f3680081565b34801561065957600080fd5b506102f26106683660046128ba565b6113aa565b34801561067957600080fd5b5061028d61068836600461262c565b6113ef565b34801561069957600080fd5b5061023f6106a8366004612996565b6001600160a01b03918216600090815260056020908152604080832093909416825291909152205460ff1690565b3480156106e257600080fd5b5061026a6106f13660046129c0565b611463565b34801561070257600080fd5b506102f26107113660046126c7565b611488565b60006001600160e01b0319821663780e9d6360e01b148061073b575061073b82611501565b92915050565b606060008054610750906129e2565b80601f016020809104026020016040519081016040528092919081815260200182805461077c906129e2565b80156107c95780601f1061079e576101008083540402835291602001916107c9565b820191906000526020600020905b8154815290600101906020018083116107ac57829003601f168201915b5050505050905090565b60006107de82611551565b506000908152600460205260409020546001600160a01b031690565b600061080582611013565b9050806001600160a01b0316836001600160a01b0316036108775760405162461bcd60e51b815260206004820152602160248201527f4552433732313a20617070726f76616c20746f2063757272656e74206f776e656044820152603960f91b60648201526084015b60405180910390fd5b336001600160a01b0382161480610893575061089381336106a8565b6109055760405162461bcd60e51b815260206004820152603d60248201527f4552433732313a20617070726f76652063616c6c6572206973206e6f7420746f60448201527f6b656e206f776e6572206f7220617070726f76656420666f7220616c6c000000606482015260840161086e565b61090f83836115b0565b505050565b600b5434101561095e5760405162461bcd60e51b8152602060048201526015602482015274125b9cdd59999a58da595b9d08115512081cd95b9d605a1b604482015260640161086e565b600c5461096b338261161e565b600061097682611299565b905060005b600560ff821610156109fa57336000908152600f6020908152604080832060ff85168085529252822091908490600581106109b8576109b8612a1c565b602002015160ff1660ff16815260200190815260200160002060008154809291906109e290612a48565b919050555080806109f290612a61565b91505061097b565b506000828152600e60205260409020610a1590826005612525565b50600c8054906000610a2683612a48565b91905055506002600b54610a3a9190612a96565b60106000828254610a4b9190612aaa565b9091555050600b54610a5f90600290612a96565b60116000828254610a709190612aaa565b9091555050600b54600090610a859034612abd565b9050801561090f57604051339082156108fc029083906000818181858888f19350505050158015610aba573d6000803e3d6000fd5b50505050565b6001600160a01b03831660009081526012602052604090205460ff1615610af95760405162461bcd60e51b815260040161086e90612ad0565b61090f838383611638565b60408051600580825260c0820190925260609160009190816020015b6060815260200190600190039081610b2057905050905060005b600560ff82161015610c6257600d5460ff1667ffffffffffffffff811115610b6457610b646128a4565b604051908082528060200260200182016040528015610b8d578160200160208202803683370190505b50828260ff1681518110610ba357610ba3612a1c565b602090810291909101015260015b600d5460ff90811690821611610c4f576001600160a01b0385166000908152600f6020908152604080832060ff8087168086529184528285209086168552909252909120548451909185918110610c0a57610c0a612a1c565b6020026020010151600183610c1f9190612b07565b60ff1681518110610c3257610c32612a1c565b602090810291909101015280610c4781612a61565b915050610bb1565b5080610c5a81612a61565b915050610b3a565b5092915050565b6000610c74836111ff565b8210610cd65760405162461bcd60e51b815260206004820152602b60248201527f455243373231456e756d657261626c653a206f776e657220696e646578206f7560448201526a74206f6620626f756e647360a81b606482015260840161086e565b506001600160a01b03919091166000908152600660209081526040808320938352929052205490565b610d07611669565b6011805460009182905590610d24600a546001600160a01b031690565b6001600160a01b03168260405160006040518083038185875af1925050503d8060008114610d6e576040519150601f19603f3d011682016040523d82523d6000602084013e610d73565b606091505b5050905080610dbb5760405162461bcd60e51b81526020600482015260146024820152732330b4b632b2103a379039b2b7321022ba3432b960611b604482015260640161086e565b5050565b6001600160a01b03831660009081526012602052604090205460ff1615610df85760405162461bcd60e51b815260040161086e90612ad0565b61090f8383836116c3565b6000610e0e60085490565b8210610e715760405162461bcd60e51b815260206004820152602c60248201527f455243373231456e756d657261626c653a20676c6f62616c20696e646578206f60448201526b7574206f6620626f756e647360a01b606482015260840161086e565b60088281548110610e8457610e84612a1c565b90600052602060002001549050919050565b610e9e612563565b6000828152600260205260409020546001600160a01b0316610ef95760405162461bcd60e51b8152602060048201526014602482015273151bdad95b88191bd95cc81b9bdd08195e1a5cdd60621b604482015260640161086e565b6000828152600e602052604090819020815160a08101928390529160059082845b815481526020019060010190808311610f1a5750505050509050919050565b600d5460609060009060ff1667ffffffffffffffff811115610f5d57610f5d6128a4565b604051908082528060200260200182016040528015610f86578160200160208202803683370190505b50905060015b600d5460ff9081169082161161100b576001600160a01b0385166000908152600f6020908152604080832060ff8089168552908352818420908516845290915290205482610fdb600184612b07565b60ff1681518110610fee57610fee612a1c565b60209081029190910101528061100381612a61565b915050610f8c565b509392505050565b6000818152600260205260408120546001600160a01b03168061073b5760405162461bcd60e51b8152602060048201526018602482015277115490cdcc8c4e881a5b9d985b1a59081d1bdad95b88125160421b604482015260640161086e565b3360009081526012602052604090205460ff166110c15760405162461bcd60e51b815260206004820152600c60248201526b2737ba1030903bb4b73732b960a11b604482015260640161086e565b60006064601054605a6110d49190612b20565b6110de9190612a96565b905080601060008282546110f29190612abd565b9091555060009050611103336111ff565b9050805b801561113c57600061111e33610379600185612abd565b9050611129816116de565b508061113481612b37565b915050611107565b50336000908152601260205260408120805460ff19169055600d805460ff169161116583612a61565b91906101000a81548160ff021916908360ff160217905550506461c9f36800600b5411156111d25761119d600a6461c9f36800612a96565b600c546111aa9190612b20565b600b546111b79190612abd565b600b8190556461c9f3680011156111d2576461c9f36800600b555b604051339083156108fc029084906000818181858888f1935050505015801561090f573d6000803e3d6000fd5b60006001600160a01b0382166112695760405162461bcd60e51b815260206004820152602960248201527f4552433732313a2061646472657373207a65726f206973206e6f7420612076616044820152683634b21037bbb732b960b91b606482015260840161086e565b506001600160a01b031660009081526003602052604090205490565b61128d611669565b6112976000611781565b565b6112a1612563565b600043486112b0600183612abd565b6040805160208101949094528301919091524060608201526080810184905260a0016040516020818303038152906040528051906020012060001c90506112f5612563565b60005b600560ff8216101561100b57600d5460405160ff90911690611336908590849060200191825260f81b6001600160f81b031916602082015260210190565b6040516020818303038152906040528051906020012060001c6113599190612b4e565b611364906001612aaa565b828260ff166005811061137957611379612a1c565b60200201528061138881612a61565b9150506112f8565b606060018054610750906129e2565b610dbb3383836117d3565b6001600160a01b03841660009081526012602052604090205460ff16156113e35760405162461bcd60e51b815260040161086e90612ad0565b610aba848484846118a1565b60606113fa82611551565b600061141160408051602081019091526000815290565b90506000815111611431576040518060200160405280600081525061145c565b8061143b846118d3565b60405160200161144c929190612b62565b6040516020818303038152906040525b9392505050565b600e602052816000526040600020816005811061147f57600080fd5b01549150829050565b611490611669565b6001600160a01b0381166114f55760405162461bcd60e51b815260206004820152602660248201527f4f776e61626c653a206e6577206f776e657220697320746865207a65726f206160448201526564647265737360d01b606482015260840161086e565b6114fe81611781565b50565b60006001600160e01b031982166380ac58cd60e01b148061153257506001600160e01b03198216635b5e139f60e01b145b8061073b57506301ffc9a760e01b6001600160e01b031983161461073b565b6000818152600260205260409020546001600160a01b03166114fe5760405162461bcd60e51b8152602060048201526018602482015277115490cdcc8c4e881a5b9d985b1a59081d1bdad95b88125160421b604482015260640161086e565b600081815260046020526040902080546001600160a01b0319166001600160a01b03841690811790915581906115e582611013565b6001600160a01b03167f8c5be1e5ebec7d5bd14f71427d1e84f3dd0314c0f7b2291e5b200ac8c7c3b92560405160405180910390a45050565b610dbb828260405180602001604052806000815250611966565b6116423382611999565b61165e5760405162461bcd60e51b815260040161086e90612b91565b61090f838383611a18565b600a546001600160a01b031633146112975760405162461bcd60e51b815260206004820181905260248201527f4f776e61626c653a2063616c6c6572206973206e6f7420746865206f776e6572604482015260640161086e565b61090f838383604051806020016040528060008152506113aa565b60006116e982611013565b90506116f9816000846001611b89565b61170282611013565b600083815260046020908152604080832080546001600160a01b03199081169091556001600160a01b0385168085526003845282852080546000190190558785526002909352818420805490911690555192935084927fddf252ad1be2c89b69c2b068fc378daa952ba7f163c4a11628f55a4df523b3ef908390a45050565b600a80546001600160a01b038381166001600160a01b0319831681179093556040519116919082907f8be0079c531659141344cd1fd0a4f28419497f9722a3daafe3b4186f6b6457e090600090a35050565b816001600160a01b0316836001600160a01b0316036118345760405162461bcd60e51b815260206004820152601960248201527f4552433732313a20617070726f766520746f2063616c6c657200000000000000604482015260640161086e565b6001600160a01b03838116600081815260056020908152604080832094871680845294825291829020805460ff191686151590811790915591519182527f17307eab39ab6107e8899845ad3d59bd9653f200f220920489ca2b5937696c31910160405180910390a3505050565b6118ab3383611999565b6118c75760405162461bcd60e51b815260040161086e90612b91565b610aba84848484611dde565b606060006118e083611e11565b600101905060008167ffffffffffffffff811115611900576119006128a4565b6040519080825280601f01601f19166020018201604052801561192a576020820181803683370190505b5090508181016020015b600019016f181899199a1a9b1b9c1cb0b131b232b360811b600a86061a8153600a850494508461193457509392505050565b6119708383611ee9565b61197d6000848484612082565b61090f5760405162461bcd60e51b815260040161086e90612bde565b6000806119a583611013565b9050806001600160a01b0316846001600160a01b031614806119ec57506001600160a01b0380821660009081526005602090815260408083209388168352929052205460ff165b80611a105750836001600160a01b0316611a05846107d3565b6001600160a01b0316145b949350505050565b826001600160a01b0316611a2b82611013565b6001600160a01b031614611a515760405162461bcd60e51b815260040161086e90612c30565b6001600160a01b038216611ab35760405162461bcd60e51b8152602060048201526024808201527f4552433732313a207472616e7366657220746f20746865207a65726f206164646044820152637265737360e01b606482015260840161086e565b611ac08383836001611b89565b826001600160a01b0316611ad382611013565b6001600160a01b031614611af95760405162461bcd60e51b815260040161086e90612c30565b600081815260046020908152604080832080546001600160a01b03199081169091556001600160a01b0387811680865260038552838620805460001901905590871680865283862080546001019055868652600290945282852080549092168417909155905184937fddf252ad1be2c89b69c2b068fc378daa952ba7f163c4a11628f55a4df523b3ef91a4505050565b611b9584848484612183565b6001600160a01b03841615611cfd576001600160a01b03841660009081526012602052604090205460ff161580611bd357506001600160a01b038316155b611c365760405162461bcd60e51b815260206004820152602e60248201527f57696e6e65722063616e6e6f74207472616e73666572204e465473206578636560448201526d707420666f72206275726e696e6760901b606482015260840161086e565b60005b600560ff82161015611cfb576000838152600e6020526040812060ff831660058110611c6757611c67612a1c565b01546001600160a01b0387166000908152600f6020908152604080832060ff8088168552908352818420908516845290915290205490915015611ce8576001600160a01b0386166000908152600f6020908152604080832060ff808716855290835281842090851684529091528120805491611ce283612b37565b91905055505b5080611cf381612a61565b915050611c39565b505b6001600160a01b03831615610aba5760005b600560ff82161015611d99576000838152600e6020526040812060ff831660058110611d3d57611d3d612a1c565b01546001600160a01b0386166000908152600f6020908152604080832060ff808816855290835281842090851684529091528120805492935090611d8083612a48565b9190505550508080611d9190612a61565b915050611d0f565b506000828152600e602052604090819020815160a0810192839052610aba9286929060059082845b815481526020019060010190808311611dc15750505050506122b7565b611de9848484611a18565b611df584848484612082565b610aba5760405162461bcd60e51b815260040161086e90612bde565b60008072184f03e93ff9f4daa797ed6e38ed64bf6a1f0160401b8310611e505772184f03e93ff9f4daa797ed6e38ed64bf6a1f0160401b830492506040015b6d04ee2d6d415b85acef81000000008310611e7c576d04ee2d6d415b85acef8100000000830492506020015b662386f26fc100008310611e9a57662386f26fc10000830492506010015b6305f5e1008310611eb2576305f5e100830492506008015b6127108310611ec657612710830492506004015b60648310611ed8576064830492506002015b600a831061073b5760010192915050565b6001600160a01b038216611f3f5760405162461bcd60e51b815260206004820181905260248201527f4552433732313a206d696e7420746f20746865207a65726f2061646472657373604482015260640161086e565b6000818152600260205260409020546001600160a01b031615611fa45760405162461bcd60e51b815260206004820152601c60248201527f4552433732313a20746f6b656e20616c7265616479206d696e74656400000000604482015260640161086e565b611fb2600083836001611b89565b6000818152600260205260409020546001600160a01b0316156120175760405162461bcd60e51b815260206004820152601c60248201527f4552433732313a20746f6b656e20616c7265616479206d696e74656400000000604482015260640161086e565b6001600160a01b038216600081815260036020908152604080832080546001019055848352600290915280822080546001600160a01b0319168417905551839291907fddf252ad1be2c89b69c2b068fc378daa952ba7f163c4a11628f55a4df523b3ef908290a45050565b60006001600160a01b0384163b1561217857604051630a85bd0160e11b81526001600160a01b0385169063150b7a02906120c6903390899088908890600401612c75565b6020604051808303816000875af1925050508015612101575060408051601f3d908101601f191682019092526120fe91810190612cb2565b60015b61215e573d80801561212f576040519150601f19603f3d011682016040523d82523d6000602084013e612134565b606091505b5080516000036121565760405162461bcd60e51b815260040161086e90612bde565b805181602001fd5b6001600160e01b031916630a85bd0160e11b149050611a10565b506001949350505050565b60018111156121f25760405162461bcd60e51b815260206004820152603560248201527f455243373231456e756d657261626c653a20636f6e7365637574697665207472604482015274185b9cd9995c9cc81b9bdd081cdd5c1c1bdc9d1959605a1b606482015260840161086e565b816001600160a01b03851661224e5761224981600880546000838152600960205260408120829055600182018355919091527ff3f7a9fe364faab93b216da50a3214154f22a0a2b415b23a84c8169e8b636ee30155565b612271565b836001600160a01b0316856001600160a01b031614612271576122718582612395565b6001600160a01b03841661228d5761228881612432565b6122b0565b846001600160a01b0316846001600160a01b0316146122b0576122b084826124e1565b5050505050565b6001600160a01b03821660009081526012602052604090205460ff16156122dc575050565b60015b600d5460ff9081169082161161090f57600160005b600560ff82161015612354576001600160a01b0385166000908152600f6020908152604080832060ff8086168552908352818420908716845290915281205490036123425760009150612354565b8061234c81612a61565b9150506122f4565b508015612382575050506001600160a01b03166000908152601260205260409020805460ff19166001179055565b508061238d81612a61565b9150506122df565b600060016123a2846111ff565b6123ac9190612abd565b6000838152600760205260409020549091508082146123ff576001600160a01b03841660009081526006602090815260408083208584528252808320548484528184208190558352600790915290208190555b5060009182526007602090815260408084208490556001600160a01b039094168352600681528383209183525290812055565b60085460009061244490600190612abd565b6000838152600960205260408120546008805493945090928490811061246c5761246c612a1c565b90600052602060002001549050806008838154811061248d5761248d612a1c565b60009182526020808320909101929092558281526009909152604080822084905585825281205560088054806124c5576124c5612ccf565b6001900381819060005260206000200160009055905550505050565b60006124ec836111ff565b6001600160a01b039093166000908152600660209081526040808320868452825280832085905593825260079052919091209190915550565b8260058101928215612553579160200282015b82811115612553578251825591602001919060010190612538565b5061255f929150612581565b5090565b6040518060a001604052806005906020820280368337509192915050565b5b8082111561255f5760008155600101612582565b6001600160e01b0319811681146114fe57600080fd5b6000602082840312156125be57600080fd5b813561145c81612596565b60005b838110156125e45781810151838201526020016125cc565b50506000910152565b600081518084526126058160208601602086016125c9565b601f01601f19169290920160200192915050565b60208152600061145c60208301846125ed565b60006020828403121561263e57600080fd5b5035919050565b80356001600160a01b038116811461265c57600080fd5b919050565b6000806040838503121561267457600080fd5b61267d83612645565b946020939093013593505050565b6000806000606084860312156126a057600080fd5b6126a984612645565b92506126b760208501612645565b9150604084013590509250925092565b6000602082840312156126d957600080fd5b61145c82612645565b6000602080830181845280855180835260408601915060408160051b87010192508387016000805b8381101561275e57888603603f19018552825180518088529088019088880190845b818110156127485783518352928a0192918a019160010161272c565b509097505050938601939186019160010161270a565b509398975050505050505050565b60a08101818360005b6005811015612794578151835260209283019290910190600101612775565b50505092915050565b803560ff8116811461265c57600080fd5b600080604083850312156127c157600080fd5b6127ca83612645565b91506127d86020840161279d565b90509250929050565b6020808252825182820181905260009190848201906040850190845b81811015612819578351835292840192918401916001016127fd565b50909695505050505050565b60008060006060848603121561283a57600080fd5b61284384612645565b92506128516020850161279d565b915061285f6040850161279d565b90509250925092565b6000806040838503121561287b57600080fd5b61288483612645565b91506020830135801515811461289957600080fd5b809150509250929050565b634e487b7160e01b600052604160045260246000fd5b600080600080608085870312156128d057600080fd5b6128d985612645565b93506128e760208601612645565b925060408501359150606085013567ffffffffffffffff8082111561290b57600080fd5b818701915087601f83011261291f57600080fd5b813581811115612931576129316128a4565b604051601f8201601f19908116603f01168101908382118183101715612959576129596128a4565b816040528281528a602084870101111561297257600080fd5b82602086016020830137600060208483010152809550505050505092959194509250565b600080604083850312156129a957600080fd5b6129b283612645565b91506127d860208401612645565b600080604083850312156129d357600080fd5b50508035926020909101359150565b600181811c908216806129f657607f821691505b602082108103612a1657634e487b7160e01b600052602260045260246000fd5b50919050565b634e487b7160e01b600052603260045260246000fd5b634e487b7160e01b600052601160045260246000fd5b600060018201612a5a57612a5a612a32565b5060010190565b600060ff821660ff8103612a7757612a77612a32565b60010192915050565b634e487b7160e01b600052601260045260246000fd5b600082612aa557612aa5612a80565b500490565b8082018082111561073b5761073b612a32565b8181038181111561073b5761073b612a32565b6020808252601b908201527f57696e6e65722063616e6e6f74207472616e73666572204e4654730000000000604082015260600190565b60ff828116828216039081111561073b5761073b612a32565b808202811582820484141761073b5761073b612a32565b600081612b4657612b46612a32565b506000190190565b600082612b5d57612b5d612a80565b500690565b60008351612b748184602088016125c9565b835190830190612b888183602088016125c9565b01949350505050565b6020808252602d908201527f4552433732313a2063616c6c6572206973206e6f7420746f6b656e206f776e6560408201526c1c881bdc88185c1c1c9bdd9959609a1b606082015260800190565b60208082526032908201527f4552433732313a207472616e7366657220746f206e6f6e20455243373231526560408201527131b2b4bb32b91034b6b83632b6b2b73a32b960711b606082015260800190565b60208082526025908201527f4552433732313a207472616e736665722066726f6d20696e636f72726563742060408201526437bbb732b960d91b606082015260800190565b6001600160a01b0385811682528416602082015260408101839052608060608201819052600090612ca8908301846125ed565b9695505050505050565b600060208284031215612cc457600080fd5b815161145c81612596565b634e487b7160e01b600052603160045260246000fdfea2646970667358221220b614731d11627e0a38e14f2e81e7d4bc305e2cf7e63c06aa2c39fcd7b20b88d864736f6c63430008110033",
  "devdoc": {
    "kind": "dev",
    "methods": {
      "approve(address,uint256)": {
        "details": "See {IERC721-approve}."
      },
      "balanceOf(address)": {
        "details": "See {IERC721-balanceOf}."
      },
      "getApproved(uint256)": {
        "details": "See {IERC721-getApproved}."
      },
      "isApprovedForAll(address,address)": {
        "details": "See {IERC721-isApprovedForAll}."
      },
      "name()": {
        "details": "See {IERC721Metadata-name}."
      },
      "owner()": {
        "details": "Returns the address of the current owner."
      },
      "ownerOf(uint256)": {
        "details": "See {IERC721-ownerOf}."
      },
      "renounceOwnership()": {
        "details": "Leaves the contract without owner. It will not be possible to call `onlyOwner` functions anymore. Can only be called by the current owner. NOTE: Renouncing ownership will leave the contract without an owner, thereby removing any functionality that is only available to the owner."
      },
      "setApprovalForAll(address,bool)": {
        "details": "See {IERC721-setApprovalForAll}."
      },
      "supportsInterface(bytes4)": {
        "details": "See {IERC165-supportsInterface}."
      },
      "symbol()": {
        "details": "See {IERC721Metadata-symbol}."
      },
      "tokenByIndex(uint256)": {
        "details": "See {IERC721Enumerable-tokenByIndex}."
      },
      "tokenOfOwnerByIndex(address,uint256)": {
        "details": "See {IERC721Enumerable-tokenOfOwnerByIndex}."
      },
      "tokenURI(uint256)": {
        "details": "See {IERC721Metadata-tokenURI}."
      },
      "totalSupply()": {
        "details": "See {IERC721Enumerable-totalSupply}."
      },
      "transferOwnership(address)": {
        "details": "Transfers ownership of the contract to a new account (`newOwner`). Can only be called by the current owner."
      }
    },
    "version": 1
  },
  "userdoc": {
    "kind": "user",
    "methods": {},
    "version": 1
  },
  "storageLayout": {
    "storage": [
      {
        "astId": 138,
        "contract": "contracts/MintChaos.sol:MintChaos",
        "label": "_name",
        "offset": 0,
        "slot": "0",
        "type": "t_string_storage"
      },
      {
        "astId": 140,
        "contract": "contracts/MintChaos.sol:MintChaos",
        "label": "_symbol",
        "offset": 0,
        "slot": "1",
        "type": "t_string_storage"
      },
      {
        "astId": 144,
        "contract": "contracts/MintChaos.sol:MintChaos",
        "label": "_owners",
        "offset": 0,
        "slot": "2",
        "type": "t_mapping(t_uint256,t_address)"
      },
      {
        "astId": 148,
        "contract": "contracts/MintChaos.sol:MintChaos",
        "label": "_balances",
        "offset": 0,
        "slot": "3",
        "type": "t_mapping(t_address,t_uint256)"
      },
      {
        "astId": 152,
        "contract": "contracts/MintChaos.sol:MintChaos",
        "label": "_tokenApprovals",
        "offset": 0,
        "slot": "4",
        "type": "t_mapping(t_uint256,t_address)"
      },
      {
        "astId": 158,
        "contract": "contracts/MintChaos.sol:MintChaos",
        "label": "_operatorApprovals",
        "offset": 0,
        "slot": "5",
        "type": "t_mapping(t_address,t_mapping(t_address,t_bool))"
      },
      {
        "astId": 1188,
        "contract": "contracts/MintChaos.sol:MintChaos",
        "label": "_ownedTokens",
        "offset": 0,
        "slot": "6",
        "type": "t_mapping(t_address,t_mapping(t_uint256,t_uint256))"
      },
      {
        "astId": 1192,
        "contract": "contracts/MintChaos.sol:MintChaos",
        "label": "_ownedTokensIndex",
        "offset": 0,
        "slot": "7",
        "type": "t_mapping(t_uint256,t_uint256)"
      },
      {
        "astId": 1195,
        "contract": "contracts/MintChaos.sol:MintChaos",
        "label": "_allTokens",
        "offset": 0,
        "slot": "8",
        "type": "t_array(t_uint256)dyn_storage"
      },
      {
        "astId": 1199,
        "contract": "contracts/MintChaos.sol:MintChaos",
        "label": "_allTokensIndex",
        "offset": 0,
        "slot": "9",
        "type": "t_mapping(t_uint256,t_uint256)"
      },
      {
        "astId": 7,
        "contract": "contracts/MintChaos.sol:MintChaos",
        "label": "_owner",
        "offset": 0,
        "slot": "10",
        "type": "t_address"
      },
      {
        "astId": 3024,
        "contract": "contracts/MintChaos.sol:MintChaos",
        "label": "currentMintPrice",
        "offset": 0,
        "slot": "11",
        "type": "t_uint256"
      },
      {
        "astId": 3030,
        "contract": "contracts/MintChaos.sol:MintChaos",
        "label": "nextTokenId",
        "offset": 0,
        "slot": "12",
        "type": "t_uint256"
      },
      {
        "astId": 3036,
        "contract": "contracts/MintChaos.sol:MintChaos",
        "label": "POSSIBLE_SETS",
        "offset": 0,
        "slot": "13",
        "type": "t_uint8"
      },
      {
        "astId": 3042,
        "contract": "contracts/MintChaos.sol:MintChaos",
        "label": "tokenMetadata",
        "offset": 0,
        "slot": "14",
        "type": "t_mapping(t_uint256,t_array(t_uint256)5_storage)"
      },
      {
        "astId": 3050,
        "contract": "contracts/MintChaos.sol:MintChaos",
        "label": "userNumberCounts",
        "offset": 0,
        "slot": "15",
        "type": "t_mapping(t_address,t_mapping(t_uint8,t_mapping(t_uint8,t_uint256)))"
      },
      {
        "astId": 3052,
        "contract": "contracts/MintChaos.sol:MintChaos",
        "label": "prizePool",
        "offset": 0,
        "slot": "16",
        "type": "t_uint256"
      },
      {
        "astId": 3054,
        "contract": "contracts/MintChaos.sol:MintChaos",
        "label": "contractBalance",
        "offset": 0,
        "slot": "17",
        "type": "t_uint256"
      },
      {
        "astId": 3058,
        "contract": "contracts/MintChaos.sol:MintChaos",
        "label": "isWinner",
        "offset": 0,
        "slot": "18",
        "type": "t_mapping(t_address,t_bool)"
      }
    ],
    "types": {
      "t_address": {
        "encoding": "inplace",
        "label": "address",
        "numberOfBytes": "20"
      },
      "t_array(t_uint256)5_storage": {
        "base": "t_uint256",
        "encoding": "inplace",
        "label": "uint256[5]",
        "numberOfBytes": "160"
      },
      "t_array(t_uint256)dyn_storage": {
        "base": "t_uint256",
        "encoding": "dynamic_array",
        "label": "uint256[]",
        "numberOfBytes": "32"
      },
      "t_bool": {
        "encoding": "inplace",
        "label": "bool",
        "numberOfBytes": "1"
      },
      "t_mapping(t_address,t_bool)": {
        "encoding": "mapping",
        "key": "t_address",
        "label": "mapping(address => bool)",
        "numberOfBytes": "32",
        "value": "t_bool"
      },
      "t_mapping(t_address,t_mapping(t_address,t_bool))": {
        "encoding": "mapping",
        "key": "t_address",
        "label": "mapping(address => mapping(address => bool))",
        "numberOfBytes": "32",
        "value": "t_mapping(t_address,t_bool)"
      },
      "t_mapping(t_address,t_mapping(t_uint256,t_uint256))": {
        "encoding": "mapping",
        "key": "t_address",
        "label": "mapping(address => mapping(uint256 => uint256))",
        "numberOfBytes": "32",
        "value": "t_mapping(t_uint256,t_uint256)"
      },
      "t_mapping(t_address,t_mapping(t_uint8,t_mapping(t_uint8,t_uint256)))": {
        "encoding": "mapping",
        "key": "t_address",
        "label": "mapping(address => mapping(uint8 => mapping(uint8 => uint256)))",
        "numberOfBytes": "32",
        "value": "t_mapping(t_uint8,t_mapping(t_uint8,t_uint256))"
      },
      "t_mapping(t_address,t_uint256)": {
        "encoding": "mapping",
        "key": "t_address",
        "label": "mapping(address => uint256)",
        "numberOfBytes": "32",
        "value": "t_uint256"
      },
      "t_mapping(t_uint256,t_address)": {
        "encoding": "mapping",
        "key": "t_uint256",
        "label": "mapping(uint256 => address)",
        "numberOfBytes": "32",
        "value": "t_address"
      },
      "t_mapping(t_uint256,t_array(t_uint256)5_storage)": {
        "encoding": "mapping",
        "key": "t_uint256",
        "label": "mapping(uint256 => uint256[5])",
        "numberOfBytes": "32",
        "value": "t_array(t_uint256)5_storage"
      },
      "t_mapping(t_uint256,t_uint256)": {
        "encoding": "mapping",
        "key": "t_uint256",
        "label": "mapping(uint256 => uint256)",
        "numberOfBytes": "32",
        "value": "t_uint256"
      },
      "t_mapping(t_uint8,t_mapping(t_uint8,t_uint256))": {
        "encoding": "mapping",
        "key": "t_uint8",
        "label": "mapping(uint8 => mapping(uint8 => uint256))",
        "numberOfBytes": "32",
        "value": "t_mapping(t_uint8,t_uint256)"
      },
      "t_mapping(t_uint8,t_uint256)": {
        "encoding": "mapping",
        "key": "t_uint8",
        "label": "mapping(uint8 => uint256)",
        "numberOfBytes": "32",
        "value": "t_uint256"
      },
      "t_string_storage": {
        "encoding": "bytes",
        "label": "string",
        "numberOfBytes": "32"
      },
      "t_uint256": {
        "encoding": "inplace",
        "label": "uint256",
        "numberOfBytes": "32"
      },
      "t_uint8": {
        "encoding": "inplace",
        "label": "uint8",
        "numberOfBytes": "1"
      }
    }
  }
}